:020000040000fa
:04025c004616000042
:020000040000fa
:04021000461600008e
:020000040000fa
:04027400461600002a
:020000040000fa
:040334004616000069
:020000040000fa
:04035c004616000041
:020000040000fa
:04027000461600002e
:020000040000fa
:04022c004616000072
:020000040000fa
:04023c004616000062
:020000040000fa
:0402bc0046160000e2
:020000040000fa
:0402c00046160000de
:020000040000fa
:0402c40046160000da
:020000040000fa
:0402c80046160000d6
:020000040000fa
:04028000461600001e
:020000040000fa
:04028400461600001a
:020000040000fa
:04039c004616000001
:020000040000fa
:040228004616000076
:020000040000fa
:040278004616000026
:020000040000fa
:04029c004616000002
:020000040000fa
:0402fc0046160000a2
:020000040000fa
:04030000461600009d
:020000040000fa
:04026000461600003e
:020000040000fa
:04026400461600003a
:020000040000fa
:04027c004616000022
:020000040000fa
:040288004616000016
:020000040000fa
:0402b00046160000ee
:020000040000fa
:0402b40046160000ea
:020000040000fa
:0402b80046160000e6
:020000040000fa
:040238004616000066
:020000040000fa
:0402e00046160000be
:020000040000fa
:0402e40046160000ba
:020000040000fa
:0402e80046160000b6
:020000040000fa
:0402f40046160000aa
:020000040000fa
:0402f80046160000a6
:020000040000fa
:040304004616000099
:020000040000fa
:040308004616000095
:020000040000fa
:04030c004616000091
:020000040000fa
:04031000461600008d
:020000040000fa
:040314004616000089
:020000040000fa
:040318004616000085
:020000040000fa
:04031c004616000081
:020000040000fa
:040324004616000079
:020000040000fa
:040328004616000075
:020000040000fa
:040338004616000065
:020000040000fa
:04033c004616000061
:020000040000fa
:04034000461600005d
:020000040000fa
:040344004616000059
:020000040000fa
:04034c004616000051
:020000040000fa
:04035000461600004d
:020000040000fa
:040354004616000049
:020000040000fa
:040358004616000045
:020000040000fa
:04036000461600003d
:020000040000fa
:040364004616000039
:020000040000fa
:040368004616000035
:020000040000fa
:040348004616000055
:020000040000fa
:04026c004616000032
:020000040000fa
:0402f00046160000ae
:020000040000fa
:04037c004616000021
:020000040000fa
:040218004616000086
:020000040000fa
:04023000461600006e
:020000040000fa
:04024000461600005e
:020000040000fa
:04028c004616000012
:020000040000fa
:04029000461600000e
:020000040000fa
:0402cc0046160000d2
:020000040000fa
:0402d00046160000ce
:020000040000fa
:0402d40046160000ca
:020000040000fa
:0402d80046160000c6
:020000040000fa
:040398004616000005
:020000040000fa
:04020c004616000092
:020000040000fa
:0402dc0046160000c2
:020000040000fa
:04032000461600007d
:020000040000fa
:040208004616000096
:020000040000fa
:04021c004616000082
:020000040000fa
:04022000461600007e
:020000040000fa
:04022400461600007a
:020000040000fa
:040268004616000036
:020000040000fa
:0402ec0046160000b2
:020000040000fa
:040378004616000025
:020000040000fa
:04024c004616000052
:020000040000fa
:04025000461600004e
:020000040000fa
:0402a80046160000f6
:020000040000fa
:0402ac0046160000f2
:020000040000fa
:04039000461600000d
:020000040000fa
:040394004616000009
:020000040000fa
:04021400461600008a
:020000040000fa
:04023400461600006a
:020000040000fa
:04024400461600005a
:020000040000fa
:040248004616000056
:020000040000fa
:04029400461600000a
:020000040000fa
:040298004616000006
:020000040000fa
:04032c004616000071
:020000040000fa
:04025400461600004a
:020000040000fa
:040258004616000046
:020000040000fa
:04033000461600006d
:020000040000fa
:0402a00046160000fe
:020000040000fa
:0402a40046160000fa
:020000040000fa
:04036c004616000031
:020000040000fa
:04037000461600002d
:020000040000fa
:040374004616000029
:020000040000fa
:040384004616000019
:020000040000fa
:040388004616000015
:020000040000fa
:04038c004616000011
:020000040000fa
:04038000461600001d
:020000040000fa
:080000001011040000000000d3
:020000040000fa
:102220000f8020000eff27000e0188000000000034
:10223000000020000000e000020032000001200049
:102240002002880014000700770007000000e0006b
:1022500003003a00000020000100200002003700c7
:102260000000200001002000810f700001003200fa
:1022700014000700000020000000e000020032000f
:102280000000020000000000161202000000000022
:102290000040da000000fe004440a90020002000b9
:1022a0000000e000030032001000200090018800d0
:1022b0004440a800000006008a1f78008b1f7800a9
:1022c00000000600a1028800800478000000eb00f6
:1022d0001f003700e284440054a0b4009905ba00fe
:1022e000e284440054a0b4009906ba00e284440099
:1022f00054a0b4000006eb00476fde00fd07b200fb
:10230000ae018800636ce10003003a00eaff0700b9
:102310000000eb000e003700606ce10008003a009e
:10232000004deb000a05e800020039003420ec0003
:102330000af0a0008b05e900f9ff3e000400370019
:102340006168e100010032000086eb000b0007002d
:1023500019c7ba001905ba000e04e00003003a00dc
:102360000a00e000dbff3a0000000600fe07b200b2
:10237000ae0288008a047800f5ff37000cd0a30075
:10238000e20f4d001c00390089027800354dba007b
:102390000a05e800020039003420ec000af0a00031
:1023a0008b05e9000f003200254dba000a05e80050
:1023b000020039003420ec000af0a0008b05e9008f
:1023c000080032000c00e0000600320015cdba0013
:1023d0000a05e800020039003420ec000af0a000f1
:1023e0008b05e9008984e80054a0b4000b00e000ec
:1023f000e2ff3a00000006009902ba00055d78008d
:102400008b05e900f7ff3200c82ade00055d780081
:102410008b05e900f3ff32000c00e000f1ff320011
:0c24200019ddba00eeff370000000500d7
:020000040000fa
:10200000101104000000000046160400000000004b
:102010004616040000000000461604000000000000
:1020200046160400000000004616040000000000f0
:1020300046160400000000004616040000000000e0
:1020400046160400000000004616040000000000d0
:1020500046160400000000004616040000000000c0
:1020600046160400000000004616040000000000b0
:1020700046160400000000004616040000000000a0
:102080004616040000000000461604000000000090
:102090004616040000000000461604000000000080
:1020a0004616040000000000461604000000000070
:1020b0004616040000000000461604000000000060
:1020c0004616040000000000461604000000000050
:1020d0004616040000000000461604000000000040
:1020e0004616040000000000461604000000000030
:1020f0004616040000000000461604000000000020
:10210000461604000000000046160400000000000f
:1021100046160400000000004616040000000000ff
:1021200046160400000000004616040000000000ef
:1021300046160400000000004616040000000000df
:1021400046160400000000004616040000000000cf
:1021500046160400000000004616040000000000bf
:1021600046160400000000004616040000000000af
:10217000461604000000000046160400000000009f
:10218000461604000000000046160400000000008f
:10219000461604000000000046160400000000007f
:1021a000461604000000000046160400000000006f
:1021b000461604000000000046160400000000005f
:1021c000461604000000000046160400000000004f
:1021d000461604000000000046160400000000003f
:1021e000461604000000000046160400000000002f
:1021f000461604000000000046160400000000001f
:10220000461604000000000046160400000000000e
:1022100046160400000000004616040000000000fe
:020000040000fa
:1000080004100000081000000c1000001010000080
:10001800141000000c1100000c1100000c1100005d
:10002800181000001c100000201000002410000010
:100038000c110000281000002c10000030100000e7
:1000480034100000381000003c1000004010000080
:1000580044100000481000000c1100000c110000b2
:100068004c10000050100000541000005810000000
:100078005c1000000c11000060100000641000000b
:100088000c110000681000006c10000070100000d7
:1000980074100000781000007c1000008010000030
:1000a80084100000881000000c1100000c110000e2
:1000b8000c1100008c10000090100000941000003b
:1000c800981000009c100000a0100000a410000070
:1000d800a8100000ac1000000c1100000c1100006a
:1000e8000c110000b0100000b41000000c1100004a
:1000f8000c110000b8100000bc1000000c1100002a
:100108000c1100000c1100000c1100000c11000073
:100118000c1100000c110000c01000000c110000b0
:100128000c110000c4100000c8100000cc10000022
:100138000c1100000c1100000c1100000c11000043
:10014800d01000000c1100000c1100000c11000070
:100158000c110000d41000000c1100000c1100005c
:100168000c110000d8100000dc100000e0100000a6
:10017800e4100000e8100000ec100000f01000008f
:10018800f4100000f8100000fc100000001100003e
:1001980004110000081100000c1100000c110000ef
:1001a8000c1100000c1100000c1100000c110000d3
:1001b8000c1100000c1100000c1100000c110000c3
:1001c8000c1100000c1100000c1100000c110000b3
:1001d8000c1100000c1100000c1100000c110000a3
:1001e8000c1100000c1100000c1100000c11000093
:0801f8000c1100000c110000c5
:020000040000fa
:10242c002a00fa00d9010700daa2a900d882a90073
:10243c0000000000e882a90000000000da82a90078
:10244c0000000000ea82a90000000000eaa2a90036
:10245c00cbe2a900ea62a900db02a900d962a900bb
:10246c0000000000d922a90000000000d942a900f8
:10247c0000000000d802a900000000000084230026
:10248c006007980000b0240070079800006c2000d2
:10249c00000f980000682000100f9800113a80007f
:1024ac00f00b20000081600060042000710520000a
:1024bc002374200080497800814978008249780093
:1024cc000e0890006300400021c1b3000148780061
:1024dc000e0890006b00400031c1b3000148780039
:1024ec000e0890006c00400041c1b3000148780018
:1024fc000e0890006400400051c1b3000148780000
:10250c00103a8000000178000260a00060042000f6
:10251c0071052000237420008049780081497800df
:10252c0082497800f0c02100800c8800b00820009f
:10253c00900c8800f0c02100d00c8800b00820005e
:10254c00e00c8800f0c02100200d8800b0082000ad
:10255c00300d8800f0c02100700d8800b0082000fc
:10256c00800d88007e0090006101b8004f18dd00de
:10257c00c110de00810070004f10dd003017980094
:10258c004117980000002800200f98000000280038
:10259c00300f980000002800400f98000000280021
:1025ac00500f9800008f2500600f9800008f2500b9
:1025bc00700f9800008f250000179800008f2500e1
:1025cc0010179800ee0890007e0090000088b9006b
:1025dc00800078006e00900000804000a00c880005
:1025ec0000000000fe0890007e0090000088b900fa
:1025fc00800078006e00900000804000f00c880095
:10260c00000000008e1090007e0090000088b90041
:10261c00800078006e00900000804000400d880023
:10262c00000000009e1090007e0090000088b90011
:10263c00800078006e00900000804000900d8800b3
:10264c000000000010002000b00c8800000000000a
:10265c0010002000000d8800000000001000200079
:10266c00500d88000000000010002000a00d880014
:10267c00000000009821ef00a221ef00ac21ef0038
:10268c00b621ef000001200020088800f0c32900cb
:10269c00100888000021ef0005e1a80000032000cd
:1026ac008008880010a12700600888000621ef0030
:1026bc0084e0a90011e1a800da42a900d822a900ff
:1026cc0000000000da22a90000000000da62a90074
:1026dc000040eb00004f78000040eb00204f9800ca
:1026ec000040eb00504798000040eb00304798004a
:1026fc000040eb004047980010c0b300004f98001a
:10270c0010c0b300104f9800dce2a900ec02a90045
:10271c00ec22a9000040eb00604798000040eb0061
:10272c00704798000100370000000000511780002e
:10273c0000022000008060000000e0000c003a0065
:10274c00da82a900000000000040eb00304798003e
:10275c00ee0890007e0090000088b90080007800a0
:10276c006e00900000804000a00c8800000000006b
:10277c005116800000002800008060000000e0007e
:10278c000c003a00ea82a9000000000010c0b3005f
:10279c0040479800fe0890007e0090000088b90029
:1027ac00800078006e00900000804000f00c8800e3
:1027bc00000000004e4090000004e00005003200d4
:1027cc003e4090000004e000020032000040eb00ac
:1027dc0020479800d1168000000220000080600085
:1027ec000000e000050032001e4078000004e0000c
:1027fc00020032000040eb00504798005e40900011
:10280c000004e00010003200ee0890007e00900002
:10281c000088b900800078006e00900000804000b5
:10282c00a00c880000000000fe0890007e009000c4
:10283c000088b900800078006e0090000080400095
:10284c00f00c880000000000501780006800600049
:10285c000000e0000e003a000e4890000004e0007a
:10286c000b0032005e4090000004e00003003a00d0
:10287c003e4090000004e0000500320010c0b300a0
:10288c00704798000040eb00004f9800060037009e
:10289c0050178000680060000000e0000200320069
:1028ac0010c0b300004f9800d1168000001020001b
:1028bc00008060000000e0000e003a001e4890000e
:1028cc000004e0000b0032005e4090000004e000c9
:1028dc0003003a004e4090000004e0000500320076
:1028ec0010c0b300604798000040eb00104f9800f8
:1028fc0007003700d1168000001020000080600017
:10290c000000e0000200320010c0b300104f98002d
:10291c006e4090000004e0001b0032007e409000ee
:10292c000004e000180032005e4090000004e0005b
:10293c0003003a002e4090000004e0001200320028
:10294c000040eb00004f78000040eb00304798004f
:10295c000040eb00404798000040eb0020479800f7
:10296c000040eb00504798000040eb006047980097
:10297c000040eb0070479800ec22a90010c0b30097
:10298c00204f980084e0a9002e4890000004e0003d
:10299c000e0032002104800000082000008060003e
:1029ac000000e0000900320084e0a9000040eb00c8
:1029bc00204f98002e4090000004e00002003200ee
:1029cc00da82a80001003700ea82a800d016800045
:1029dc00680060000000e000180032001e40780023
:1029ec000004e00015003a0010c0b3001047980036
:1029fc00da82a900ea82a900ec02a800ae089000d5
:102a0c007e0090000088b900800078006e00900075
:102a1c0000804000a00c8800be0890007e00900052
:102a2c000088b900800078006e00900000804000a3
:102a3c00f00c8800da22a800000000001e40900074
:102a4c000004e00010003200be0890007e009000f0
:102a5c000088b900800078006e0090000080400073
:102a6c00f00c880000000000ae0890007e00900082
:102a7c000088b900800078006e0090000080400053
:102a8c00a00c880000000000d016800064006000dc
:102a9c000000e0000b0032001e4090000004e0003b
:102aac0008003200da82a800dce2a800ea82a80062
:102abc00ec22a80010c0b300004f78000040eb00df
:102acc0040679800d0168000640060000000e000b1
:102adc001b0032001e4078000004e0001800320099
:102aec00d0168000700060000000e000070032008b
:102afc00ce0890007e0090000088b900800078001d
:102b0c006e00900000804000400d8800501780003f
:102b1c00700060000000e00007003200de0890004a
:102b2c007e0090000088b900800078006e00900054
:102b3c0000804000900d88000040eb00104798008a
:102b4c00d0168000640060000000e000f6fe3a0041
:102b5c008e1090007e0090000088b90080007800f4
:102b6c006e00900000804000400d88009e10900088
:102b7c007e0090000088b900800078006e00900004
:102b8c0000804000900d8800e8fe37000000fa003d
:102b9c0000102000203a8800d8a2a800d882a800f3
:102bac00e882a800e8a2a800c9e2a800e862a80090
:102bbc00d902a800d962a800d922a800d942a8003d
:102bcc00d802a800d822a800d842a800d862a80031
:102bdc00c8a2a800c882a800c862a800c842a80061
:102bec00c822a800c802a800f00320001027880003
:102bfc00e424ef00e624ef00ea24ef00ec24ef00dd
:102c0c00000e2000001988002223ef0000c42000d1
:102c1c0020198800500020004019880021e3a800ea
:102c2c00d8e2a900dce2a900e802a900ec02a900a4
:102c3c00e822a900ec22a900d1e2a800d182a800c8
:102c4c00c982a8000080fa00000006000200fa0009
:102c5c00000f78009e007800411988002023a800fe
:102c6c000000000000198000610060000000e0001e
:102c7c00fcff3200001880000080fa000000060003
:020000040000fa
:082c8c000040da000000fe0028
:00000001FF
