:020000040000fa
:04025c007816000010
:020000040000fa
:04021000781600005c
:020000040000fa
:0402740078160000f8
:020000040000fa
:040334007816000037
:020000040000fa
:04035c00781600000f
:020000040000fa
:0402700078160000fc
:020000040000fa
:04022c007816000040
:020000040000fa
:04023c007816000030
:020000040000fa
:0402bc0078160000b0
:020000040000fa
:0402c00078160000ac
:020000040000fa
:0402c40078160000a8
:020000040000fa
:0402c80078160000a4
:020000040000fa
:0402800078160000ec
:020000040000fa
:0402840078160000e8
:020000040000fa
:04039c0078160000cf
:020000040000fa
:040228007816000044
:020000040000fa
:0402780078160000f4
:020000040000fa
:04029c0078160000d0
:020000040000fa
:0402fc007816000070
:020000040000fa
:04030000781600006b
:020000040000fa
:04026000781600000c
:020000040000fa
:040264007816000008
:020000040000fa
:04027c0078160000f0
:020000040000fa
:0402880078160000e4
:020000040000fa
:0402b00078160000bc
:020000040000fa
:0402b40078160000b8
:020000040000fa
:0402b80078160000b4
:020000040000fa
:040238007816000034
:020000040000fa
:0402e000781600008c
:020000040000fa
:0402e4007816000088
:020000040000fa
:0402e8007816000084
:020000040000fa
:0402f4007816000078
:020000040000fa
:0402f8007816000074
:020000040000fa
:040304007816000067
:020000040000fa
:040308007816000063
:020000040000fa
:04030c00781600005f
:020000040000fa
:04031000781600005b
:020000040000fa
:040314007816000057
:020000040000fa
:040318007816000053
:020000040000fa
:04031c00781600004f
:020000040000fa
:040324007816000047
:020000040000fa
:040328007816000043
:020000040000fa
:040338007816000033
:020000040000fa
:04033c00781600002f
:020000040000fa
:04034000781600002b
:020000040000fa
:040344007816000027
:020000040000fa
:04034c00781600001f
:020000040000fa
:04035000781600001b
:020000040000fa
:040354007816000017
:020000040000fa
:040358007816000013
:020000040000fa
:04036000781600000b
:020000040000fa
:040364007816000007
:020000040000fa
:040368007816000003
:020000040000fa
:040348007816000023
:020000040000fa
:04026c007816000000
:020000040000fa
:0402f000781600007c
:020000040000fa
:04037c0078160000ef
:020000040000fa
:040218007816000054
:020000040000fa
:04023000781600003c
:020000040000fa
:04024000781600002c
:020000040000fa
:04028c0078160000e0
:020000040000fa
:0402900078160000dc
:020000040000fa
:0402cc0078160000a0
:020000040000fa
:0402d000781600009c
:020000040000fa
:0402d4007816000098
:020000040000fa
:0402d8007816000094
:020000040000fa
:0403980078160000d3
:020000040000fa
:04020c007816000060
:020000040000fa
:0402dc007816000090
:020000040000fa
:04032000781600004b
:020000040000fa
:040208007816000064
:020000040000fa
:04021c007816000050
:020000040000fa
:04022000781600004c
:020000040000fa
:040224007816000048
:020000040000fa
:040268007816000004
:020000040000fa
:0402ec007816000080
:020000040000fa
:0403780078160000f3
:020000040000fa
:04024c007816000020
:020000040000fa
:04025000781600001c
:020000040000fa
:0402a80078160000c4
:020000040000fa
:0402ac0078160000c0
:020000040000fa
:0403900078160000db
:020000040000fa
:0403940078160000d7
:020000040000fa
:040214007816000058
:020000040000fa
:040234007816000038
:020000040000fa
:040244007816000028
:020000040000fa
:040248007816000024
:020000040000fa
:0402940078160000d8
:020000040000fa
:0402980078160000d4
:020000040000fa
:04032c00781600003f
:020000040000fa
:040254007816000018
:020000040000fa
:040258007816000014
:020000040000fa
:04033000781600003b
:020000040000fa
:0402a00078160000cc
:020000040000fa
:0402a40078160000c8
:020000040000fa
:04036c0078160000ff
:020000040000fa
:0403700078160000fb
:020000040000fa
:0403740078160000f7
:020000040000fa
:0403840078160000e7
:020000040000fa
:0403880078160000e3
:020000040000fa
:04038c0078160000df
:020000040000fa
:0403800078160000eb
:020000040000fa
:080000001011040000000000d3
:020000040000fa
:102220000f8020000eff27000e0188000000000034
:10223000000020000000e000020032000001200049
:102240002002880014000700770007000000e0006b
:1022500003003a00000020000100200002003700c7
:102260000000200001002000810f700001003200fa
:1022700014000700000020000000e000020032000f
:102280000000020000000000161202000000000022
:102290000040da000000fe004440a90020002000b9
:1022a0000000e000030032001000200090018800d0
:1022b0004440a800000006008a1f78008b1f7800a9
:1022c00000000600a1028800800478000000eb00f6
:1022d0001f003700e284440054a0b4009905ba00fe
:1022e000e284440054a0b4009906ba00e284440099
:1022f00054a0b4000006eb00476fde00fd07b200fb
:10230000ae018800636ce10003003a00eaff0700b9
:102310000000eb000e003700606ce10008003a009e
:10232000004deb000a05e800020039003420ec0003
:102330000af0a0008b05e900f9ff3e000400370019
:102340006168e100010032000086eb000b0007002d
:1023500019c7ba001905ba000e04e00003003a00dc
:102360000a00e000dbff3a0000000600fe07b200b2
:10237000ae0288008a047800f5ff37000cd0a30075
:10238000e20f4d001c00390089027800354dba007b
:102390000a05e800020039003420ec000af0a00031
:1023a0008b05e9000f003200254dba000a05e80050
:1023b000020039003420ec000af0a0008b05e9008f
:1023c000080032000c00e0000600320015cdba0013
:1023d0000a05e800020039003420ec000af0a000f1
:1023e0008b05e9008984e80054a0b4000b00e000ec
:1023f000e2ff3a00000006009902ba00055d78008d
:102400008b05e900f7ff3200c82ade00055d780081
:102410008b05e900f3ff32000c00e000f1ff320011
:0c24200019ddba00eeff370000000500d7
:020000040000fa
:102000001011040000000000781604000000000019
:10201000781604000000000078160400000000009c
:10202000781604000000000078160400000000008c
:10203000781604000000000078160400000000007c
:10204000781604000000000078160400000000006c
:10205000781604000000000078160400000000005c
:10206000781604000000000078160400000000004c
:10207000781604000000000078160400000000003c
:10208000781604000000000078160400000000002c
:10209000781604000000000078160400000000001c
:1020a000781604000000000078160400000000000c
:1020b00078160400000000007816040000000000fc
:1020c00078160400000000007816040000000000ec
:1020d00078160400000000007816040000000000dc
:1020e00078160400000000007816040000000000cc
:1020f00078160400000000007816040000000000bc
:1021000078160400000000007816040000000000ab
:10211000781604000000000078160400000000009b
:10212000781604000000000078160400000000008b
:10213000781604000000000078160400000000007b
:10214000781604000000000078160400000000006b
:10215000781604000000000078160400000000005b
:10216000781604000000000078160400000000004b
:10217000781604000000000078160400000000003b
:10218000781604000000000078160400000000002b
:10219000781604000000000078160400000000001b
:1021a000781604000000000078160400000000000b
:1021b00078160400000000007816040000000000fb
:1021c00078160400000000007816040000000000eb
:1021d00078160400000000007816040000000000db
:1021e00078160400000000007816040000000000cb
:1021f00078160400000000007816040000000000bb
:1022000078160400000000007816040000000000aa
:10221000781604000000000078160400000000009a
:020000040000fa
:1000080004100000081000000c1000001010000080
:10001800141000000c1100000c1100000c1100005d
:10002800181000001c100000201000002410000010
:100038000c110000281000002c10000030100000e7
:1000480034100000381000003c1000004010000080
:1000580044100000481000000c1100000c110000b2
:100068004c10000050100000541000005810000000
:100078005c1000000c11000060100000641000000b
:100088000c110000681000006c10000070100000d7
:1000980074100000781000007c1000008010000030
:1000a80084100000881000000c1100000c110000e2
:1000b8000c1100008c10000090100000941000003b
:1000c800981000009c100000a0100000a410000070
:1000d800a8100000ac1000000c1100000c1100006a
:1000e8000c110000b0100000b41000000c1100004a
:1000f8000c110000b8100000bc1000000c1100002a
:100108000c1100000c1100000c1100000c11000073
:100118000c1100000c110000c01000000c110000b0
:100128000c110000c4100000c8100000cc10000022
:100138000c1100000c1100000c1100000c11000043
:10014800d01000000c1100000c1100000c11000070
:100158000c110000d41000000c1100000c1100005c
:100168000c110000d8100000dc100000e0100000a6
:10017800e4100000e8100000ec100000f01000008f
:10018800f4100000f8100000fc100000001100003e
:1001980004110000081100000c1100000c110000ef
:1001a8000c1100000c1100000c1100000c110000d3
:1001b8000c1100000c1100000c1100000c110000c3
:1001c8000c1100000c1100000c1100000c110000b3
:1001d8000c1100000c1100000c1100000c110000a3
:1001e8000c1100000c1100000c1100000c11000093
:0801f8000c1100000c110000c5
:020000040000fa
:10242c002200fa00f20107000000eb0010079800f0
:10243c00008423004007980000b024005007980047
:10244c00006c20006007980000682000700798005e
:10245c00d8a2a90000000000d882a900000000004a
:10246c00e882a90000000000e8a2a900000000001a
:10247c00c9e2a90000000000daa2a90000000000d7
:10248c00da82a90000000000ea82a9000000000026
:10249c00eaa2a90000000000cbe2a90000000000a5
:1024ac00e862a800ea62a900d902a90000000000b5
:1024bc00d902a900db02a900113a8000f00b200020
:1024cc00008160006004200071052000237420004e
:1024dc008049780081497800824978006e0090002c
:1024ec000080e80021c1b30001487800103a800058
:1024fc00000178000260a00060042000710520003b
:10250c002374200080497800814978008249780042
:10251c0060c02100800c8800f0012000900c880025
:10252c00f0632000a00c8800a00c80006f00b900a4
:10253c0000007800c200de00b04721000008b8009f
:10254c000100d100000f98009621ef009821ef00b8
:10255c00f03f2000100f98000080eb00200f980037
:10256c00ae0890001e0890000001780011000900d0
:10257c008280d800300f980010002000400f980087
:10258c0010002000500f98000000eb00300798005e
:10259c000000eb0020079800d962a90000000000a1
:1025ac00113a8000f00b20000081600060042000d4
:1025bc00710520002374200080497800814978003f
:1025cc00824978006e0090006c00400031c1b3006d
:1025dc0001487800103a8000000178000260a000e9
:1025ec0060042000710520002374200080497800cd
:1025fc008149780082497800f0c02100d00c880015
:10260c00b0082000e00c8800008f2500600f9800b7
:10261c00ee0890005e0090000088b9008000780001
:10262c004e00900000804000f00c8800100020004c
:10263c00000d8800a221ef00000120008008880016
:10264c00f0c32900600888000621ef0011e1a80002
:10265c00d922a90000000000113a8000f00b2000e4
:10266c0000816000600420007105200023742000ac
:10267c008049780081497800824978006e0090008a
:10268c006400400041c1b30001487800103a80005a
:10269c00000178000260a000600420007105200099
:1026ac0023742000804978008149780082497800a1
:1026bc00f0c02100200d8800b0082000300d8800eb
:1026cc00008f2500700f9800fe0890005e009000af
:1026dc000088b900800078004e0090000080400017
:1026ec00400d880010002000500d8800ac21ef0038
:1026fc000001200090088800f0c3290070088800b1
:10270c000a21ef0013e1a800d942a800db42a9007e
:10271c00d802a90000032000200888009086210020
:10272c00100888000021ef008460a90005e1a800d2
:10273c0000000000113a8000f00b200000816000c6
:10274c00600420007105200023742000804978006b
:10275c0081497800824978006e0090006b0040003f
:10276c0051c1b30001487800103a80000001780094
:10277c000260a0006004200071052000237420007a
:10278c0080497800814978008249780060c0210036
:10279c00700d8800f0012000800d8800f06320008f
:1027ac00900d8800900d80006500b9000000780045
:1027bc00c200de00b04721000008b8000100d100c3
:1027cc0000179800b421ef00b621ef00d842a80002
:1027dc00d862a800da42a900da62a9000500370025
:1027ec00000000000300370000000000010037006b
:1027fc0000000000d0168000640060000000e000c3
:10280c0007003200d0168000680060000000e00075
:10281c000300320010002000100798000a00370057
:10282c00d0168000640060000000e00006003a0052
:10283c00d0168000680060000000e00002003a0042
:10284c000000eb00100798001e0090000000e00054
:10285c0094003200d0168000640060000000e0009c
:10286c0090003200d11680000040200000806000f3
:10287c000000e000340032005116800000002800f7
:10288c00008060000000e000050032000e10900097
:10289c006a00b90000007800a00d880081003700a4
:1028ac005117800000022000008060000000e00052
:1028bc00050032000e1090006900b900000078008d
:1028cc00a00d880077003700501780007000600062
:1028dc000000e000040032000e1090004300dd0008
:1028ec00a00d88006f003700d016800070006000cb
:1028fc000000e000050032000e1090006700b900e7
:10290c0000007800a00d880066003700d11680000a
:10291c0000022000008060000000e0000500320092
:10292c000e1090006600b90000007800a00d880021
:10293c005c0037000e1090006500b90000007800b4
:10294c00a00d880057003700b421ef002004800050
:10295c00680060000000e000520032008460a900b2
:10296c001e0078000000e0002600320051168000a6
:10297c0000002800008060000000e000050032002c
:10298c000000eb00000f7800dce2a800ec02a900cc
:10299c0044003700511780000002200000806000c6
:1029ac000000e00002003200cbe2a8003d0037003e
:1029bc0050178000700060000000e0000200320040
:1029cc00eaa2a80037003700d01680007000600023
:1029dc000000e00002003200ea82a800310037005b
:1029ec00d116800000022000008060000000e00092
:1029fc0002003200da82a8002a003700daa2a8000e
:102a0c00280037001e0078000000e00025003a0086
:102a1c00d116800000022000008060000000e00061
:102a2c0005003a0010002000000f7800ec02a8000e
:102a3c00dce2a9001b003700d0168000700060009b
:102a4c000000e00002003a00daa2a90015003700ed
:102a5c0050178000700060000000e00002003a0097
:102a6c00da82a9000f003700511780000002200005
:102a7c00008060000000e00002003a00ea82a90039
:102a8c00080037005116800000002800008060000c
:102a9c000000e00002003a00eaa2a90001003700a1
:102aac00cbe2a9001e0090000000e0004cff3200b9
:102abc00d0168000680060000000e0004aff320081
:102acc0050178000680060000000e0000300320036
:102adc008e089000b10c8800010037009621ef00a1
:102aec005000200072000700400f980040002000aa
:102afc006f000700500f9800ce089000401f200078
:102b0c00808f500003003600dce2a800ec02a90024
:102b1c0002003700dce2a900ec02a800be00900025
:102b2c004e08900000805000fe0f50000c00360044
:102b3c00ce0890003e0890000088b9008000780014
:102b4c005e0090000088b900800078004e00900074
:102b5c0000804000400d88004e099000320798001c
:102b6c00de0890002e00900000805000fe0f5000f8
:102b7c000d003600de0890003e0890000088b90079
:102b8c00800078005e0090000088b900800078001a
:102b9c004e00900000804000f00c8800de08900091
:102bac002107980013ff3700ae0090005e089000dc
:102bbc0000805000fe0f50000dff3600de08900024
:102bcc003e0890000088b900800078005e009000fc
:102bdc000088b900800078004e0090000080400012
:102bec00f00c88005e0990002207980001ff370066
:102bfc000000fa0000102000203a8800d8a2a8009b
:102c0c00d882a800e882a800e8a2a800c9e2a8001f
:102c1c00e862a800d902a800d962a800d922a800ad
:102c2c00d942a800d802a800d822a800d842a800ef
:102c3c00d862a800c8a2a800c882a800c862a800d0
:102c4c00c842a800c822a800c802a800f0032000af
:102c5c0010278800e424ef00e624ef00ea24ef00bc
:102c6c00ec24ef00000e2000001988002223ef0056
:102c7c0000c4200020198800500020004019880052
:102c8c0021e3a800d8e2a900dce2a900e802a9002f
:102c9c00ec02a900e822a900ec22a900d1e2a800cc
:102cac00d182a800c982a8000080fa0000000600aa
:102cbc000200fa00000f78009e007800411988008d
:102ccc002023a800000000000019800061006000b3
:102cdc000000e000fcff3200001880000080fa00c9
:042cec0000000600de
:020000040000fa
:082cf0000040da000000fe00c4
:00000001FF
