:020000040000fa
:04025c005a1600002e
:020000040000fa
:040210005a1600007a
:020000040000fa
:040274005a16000016
:020000040000fa
:040334005a16000055
:020000040000fa
:04035c005a1600002d
:020000040000fa
:040270005a1600001a
:020000040000fa
:04022c005a1600005e
:020000040000fa
:04023c005a1600004e
:020000040000fa
:0402bc005a160000ce
:020000040000fa
:0402c0005a160000ca
:020000040000fa
:0402c4005a160000c6
:020000040000fa
:0402c8005a160000c2
:020000040000fa
:040280005a1600000a
:020000040000fa
:040284005a16000006
:020000040000fa
:04039c005a160000ed
:020000040000fa
:040228005a16000062
:020000040000fa
:040278005a16000012
:020000040000fa
:04029c005a160000ee
:020000040000fa
:0402fc005a1600008e
:020000040000fa
:040300005a16000089
:020000040000fa
:040260005a1600002a
:020000040000fa
:040264005a16000026
:020000040000fa
:04027c005a1600000e
:020000040000fa
:040288005a16000002
:020000040000fa
:0402b0005a160000da
:020000040000fa
:0402b4005a160000d6
:020000040000fa
:0402b8005a160000d2
:020000040000fa
:040238005a16000052
:020000040000fa
:0402e0005a160000aa
:020000040000fa
:0402e4005a160000a6
:020000040000fa
:0402e8005a160000a2
:020000040000fa
:0402f4005a16000096
:020000040000fa
:0402f8005a16000092
:020000040000fa
:040304005a16000085
:020000040000fa
:040308005a16000081
:020000040000fa
:04030c005a1600007d
:020000040000fa
:040310005a16000079
:020000040000fa
:040314005a16000075
:020000040000fa
:040318005a16000071
:020000040000fa
:04031c005a1600006d
:020000040000fa
:040324005a16000065
:020000040000fa
:040328005a16000061
:020000040000fa
:040338005a16000051
:020000040000fa
:04033c005a1600004d
:020000040000fa
:040340005a16000049
:020000040000fa
:040344005a16000045
:020000040000fa
:04034c005a1600003d
:020000040000fa
:040350005a16000039
:020000040000fa
:040354005a16000035
:020000040000fa
:040358005a16000031
:020000040000fa
:040360005a16000029
:020000040000fa
:040364005a16000025
:020000040000fa
:040368005a16000021
:020000040000fa
:040348005a16000041
:020000040000fa
:04026c005a1600001e
:020000040000fa
:0402f0005a1600009a
:020000040000fa
:04037c005a1600000d
:020000040000fa
:040218005a16000072
:020000040000fa
:040230005a1600005a
:020000040000fa
:040240005a1600004a
:020000040000fa
:04028c005a160000fe
:020000040000fa
:040290005a160000fa
:020000040000fa
:0402cc005a160000be
:020000040000fa
:0402d0005a160000ba
:020000040000fa
:0402d4005a160000b6
:020000040000fa
:0402d8005a160000b2
:020000040000fa
:040398005a160000f1
:020000040000fa
:04020c005a1600007e
:020000040000fa
:0402dc005a160000ae
:020000040000fa
:040320005a16000069
:020000040000fa
:040208005a16000082
:020000040000fa
:04021c005a1600006e
:020000040000fa
:040220005a1600006a
:020000040000fa
:040224005a16000066
:020000040000fa
:040268005a16000022
:020000040000fa
:0402ec005a1600009e
:020000040000fa
:040378005a16000011
:020000040000fa
:04024c005a1600003e
:020000040000fa
:040250005a1600003a
:020000040000fa
:0402a8005a160000e2
:020000040000fa
:0402ac005a160000de
:020000040000fa
:040390005a160000f9
:020000040000fa
:040394005a160000f5
:020000040000fa
:040214005a16000076
:020000040000fa
:040234005a16000056
:020000040000fa
:040244005a16000046
:020000040000fa
:040248005a16000042
:020000040000fa
:040294005a160000f6
:020000040000fa
:040298005a160000f2
:020000040000fa
:04032c005a1600005d
:020000040000fa
:040254005a16000036
:020000040000fa
:040258005a16000032
:020000040000fa
:040330005a16000059
:020000040000fa
:0402a0005a160000ea
:020000040000fa
:0402a4005a160000e6
:020000040000fa
:04036c005a1600001d
:020000040000fa
:040370005a16000019
:020000040000fa
:040374005a16000015
:020000040000fa
:040384005a16000005
:020000040000fa
:040388005a16000001
:020000040000fa
:04038c005a160000fd
:020000040000fa
:040380005a16000009
:020000040000fa
:080000001011040000000000d3
:020000040000fa
:102220000f8020000eff27000e0188000000000034
:10223000000020000000e000020032000001200049
:102240002002880014000700770007000000e0006b
:1022500003003a00000020000100200002003700c7
:102260000000200001002000810f700001003200fa
:1022700014000700000020000000e000020032000f
:102280000000020000000000161202000000000022
:102290000040da000000fe004440a90020002000b9
:1022a0000000e000030032001000200090018800d0
:1022b0004440a800000006008a1f78008b1f7800a9
:1022c00000000600a1028800800478000000eb00f6
:1022d0001f003700e284440054a0b4009905ba00fe
:1022e000e284440054a0b4009906ba00e284440099
:1022f00054a0b4000006eb00476fde00fd07b200fb
:10230000ae018800636ce10003003a00eaff0700b9
:102310000000eb000e003700606ce10008003a009e
:10232000004deb000a05e800020039003420ec0003
:102330000af0a0008b05e900f9ff3e000400370019
:102340006168e100010032000086eb000b0007002d
:1023500019c7ba001905ba000e04e00003003a00dc
:102360000a00e000dbff3a0000000600fe07b200b2
:10237000ae0288008a047800f5ff37000cd0a30075
:10238000e20f4d001c00390089027800354dba007b
:102390000a05e800020039003420ec000af0a00031
:1023a0008b05e9000f003200254dba000a05e80050
:1023b000020039003420ec000af0a0008b05e9008f
:1023c000080032000c00e0000600320015cdba0013
:1023d0000a05e800020039003420ec000af0a000f1
:1023e0008b05e9008984e80054a0b4000b00e000ec
:1023f000e2ff3a00000006009902ba00055d78008d
:102400008b05e900f7ff3200c82ade00055d780081
:102410008b05e900f3ff32000c00e000f1ff320011
:0c24200019ddba00eeff370000000500d7
:020000040000fa
:1020000010110400000000005a1604000000000037
:102010005a160400000000005a16040000000000d8
:102020005a160400000000005a16040000000000c8
:102030005a160400000000005a16040000000000b8
:102040005a160400000000005a16040000000000a8
:102050005a160400000000005a1604000000000098
:102060005a160400000000005a1604000000000088
:102070005a160400000000005a1604000000000078
:102080005a160400000000005a1604000000000068
:102090005a160400000000005a1604000000000058
:1020a0005a160400000000005a1604000000000048
:1020b0005a160400000000005a1604000000000038
:1020c0005a160400000000005a1604000000000028
:1020d0005a160400000000005a1604000000000018
:1020e0005a160400000000005a1604000000000008
:1020f0005a160400000000005a16040000000000f8
:102100005a160400000000005a16040000000000e7
:102110005a160400000000005a16040000000000d7
:102120005a160400000000005a16040000000000c7
:102130005a160400000000005a16040000000000b7
:102140005a160400000000005a16040000000000a7
:102150005a160400000000005a1604000000000097
:102160005a160400000000005a1604000000000087
:102170005a160400000000005a1604000000000077
:102180005a160400000000005a1604000000000067
:102190005a160400000000005a1604000000000057
:1021a0005a160400000000005a1604000000000047
:1021b0005a160400000000005a1604000000000037
:1021c0005a160400000000005a1604000000000027
:1021d0005a160400000000005a1604000000000017
:1021e0005a160400000000005a1604000000000007
:1021f0005a160400000000005a16040000000000f7
:102200005a160400000000005a16040000000000e6
:102210005a160400000000005a16040000000000d6
:020000040000fa
:1000080004100000081000000c1000001010000080
:10001800141000000c1100000c1100000c1100005d
:10002800181000001c100000201000002410000010
:100038000c110000281000002c10000030100000e7
:1000480034100000381000003c1000004010000080
:1000580044100000481000000c1100000c110000b2
:100068004c10000050100000541000005810000000
:100078005c1000000c11000060100000641000000b
:100088000c110000681000006c10000070100000d7
:1000980074100000781000007c1000008010000030
:1000a80084100000881000000c1100000c110000e2
:1000b8000c1100008c10000090100000941000003b
:1000c800981000009c100000a0100000a410000070
:1000d800a8100000ac1000000c1100000c1100006a
:1000e8000c110000b0100000b41000000c1100004a
:1000f8000c110000b8100000bc1000000c1100002a
:100108000c1100000c1100000c1100000c11000073
:100118000c1100000c110000c01000000c110000b0
:100128000c110000c4100000c8100000cc10000022
:100138000c1100000c1100000c1100000c11000043
:10014800d01000000c1100000c1100000c11000070
:100158000c110000d41000000c1100000c1100005c
:100168000c110000d8100000dc100000e0100000a6
:10017800e4100000e8100000ec100000f01000008f
:10018800f4100000f8100000fc100000001100003e
:1001980004110000081100000c1100000c110000ef
:1001a8000c1100000c1100000c1100000c110000d3
:1001b8000c1100000c1100000c1100000c110000c3
:1001c8000c1100000c1100000c1100000c110000b3
:1001d8000c1100000c1100000c1100000c110000a3
:1001e8000c1100000c1100000c1100000c11000093
:0801f8000c1100000c110000c5
:020000040000fa
:10242c002a00fa00e30107000000eb0010079800f7
:10243c00008423002007980000b024003007980087
:10244c00006c20004007980000682000500798009e
:10245c00d8a2a90000000000d882a900000000004a
:10246c00e882a90000000000e8a2a900000000001a
:10247c00c9e2a90000000000daa2a90000000000d7
:10248c00da82a90000000000ea82a9000000000026
:10249c00eaa2a90000000000cbe2a90000000000a5
:1024ac00e862a800ea62a900d902a90000000000b5
:1024bc00d902a900db02a900113a8000f00b200020
:1024cc00008160006004200071052000237420004e
:1024dc008049780081497800824978004e0090004c
:1024ec000080e80021c1b30001487800103a800058
:1024fc00000178000260a00060042000710520003b
:10250c002374200080497800814978008249780042
:10251c0060c02100800c8800f0012000900c880025
:10252c00f0632000a00c8800a10c80008002200029
:10253c000088b90000007800c200de00b04721001e
:10254c000008b8000100d100600798009621ef0048
:10255c009821ef00f03f2000700798000080eb00fe
:10256c00000f98008e0890007e009000000178000b
:10257c00110009008280d800100f98001000200074
:10258c00200f980010002000300f98000001200050
:10259c0020088800f0c32900100888000021ef00f3
:1025ac0005e1a800d962a90000000000113a8000e2
:1025bc00f00b2000008160006004200071052000f9
:1025cc002374200080497800814978008249780082
:1025dc004e0090006c00400031c1b30001487800ff
:1025ec00103a8000000178000260a0006004200016
:1025fc0071052000237420008049780081497800ff
:10260c0082497800f0c02100d00c8800b00820006e
:10261c00e00c8800008f2500400f9800ce08900039
:10262c003e0090000088b900800078002e009000d9
:10263c0000804000f00c880010002000000d880085
:10264c00a221ef00d922a90000000000113a80005d
:10265c00f00b200000816000600420007105200058
:10266c0023742000804978008149780082497800e1
:10267c004e0090006400400041c1b3000148780056
:10268c00103a8000000178000260a0006004200075
:10269c00710520002374200080497800814978005e
:1026ac0082497800f0c02100200d8800b00820007d
:1026bc00300d8800008f2500500f9800de08900028
:1026cc003e0090000088b900800078002e00900039
:1026dc0000804000400d880010002000500d880044
:1026ec00ac21ef00d942a800db42a900d802a90016
:1026fc000003200080088800908621006008880074
:10270c000621ef0084e0a90011e1a8000000000000
:10271c00113a8000f00b2000008160006004200062
:10272c0071052000237420008049780081497800cd
:10273c00824978004e0090006b00400051c1b300fc
:10274c0001487800103a8000000178000260a00077
:10275c00600420007105200023742000804978005b
:10276c00814978008249780060c02100700d880092
:10277c00f0012000800d8800f0632000900d88008f
:10278c00900d80006a00b90000007800c200de00e5
:10279c00b04721000008b8000100d100600f98007c
:1027ac00b421ef00b621ef00d842a800d862a800ef
:1027bc00da42a900da62a900030037000000000029
:1027cc000100370000000000d0168000640060009b
:1027dc000000e00007003200d016800068006000a6
:1027ec000000e000030032001000200010079800e9
:1027fc0014003700d0168000640060000000e00078
:10280c0010003a00d0168000680060000000e00064
:10281c000c003a000000eb0010079800daa2a900a7
:10282c0000000000da82a90000000000ea82a90082
:10283c0000000000eaa2a90000000000cbe2a90001
:10284c00000000001e0090000000e0009500320027
:10285c00d0168000640060000000e000910032009f
:10286c00d116800000402000008060000000e000d5
:10287c0034003200511680000000280000806000f7
:10288c000000e000050032006e0890006a00b900fc
:10289c0000007800a00d88008200370051178000de
:1028ac0000022000008060000000e0000500320003
:1028bc006e0890006900b90000007800a00d880037
:1028cc007800370050178000700060000000e000b6
:1028dc00040032006e0890004300dd00a00d88005b
:1028ec0070003700d0168000700060000000e0001f
:1028fc00050032006e0890006700b90000007800f7
:10290c00a00d880067003700d1168000000220005f
:10291c00008060000000e000050032006e089000ae
:10292c006600b90000007800a00d88005d0037003b
:10293c006e0890006500b90000007800a00d8800ba
:10294c0058003700b421ef0021048000000820005b
:10295c00008060000000e0005200320084e0a9001a
:10296c001e0078000000e0002600320051168000a6
:10297c0000002800008060000000e000050032002c
:10298c000000eb00000f7800dce2a800ec02a900cc
:10299c0044003700511780000002200000806000c6
:1029ac000000e00002003200cbe2a8003d0037003e
:1029bc0050178000700060000000e0000200320040
:1029cc00eaa2a80037003700d01680007000600023
:1029dc000000e00002003200ea82a800310037005b
:1029ec00d116800000022000008060000000e00092
:1029fc0002003200da82a8002a003700daa2a8000e
:102a0c00280037001e0078000000e00025003a0086
:102a1c00d116800000022000008060000000e00061
:102a2c0005003a0010002000000f7800ec02a8000e
:102a3c00dce2a9001b003700d0168000700060009b
:102a4c000000e00002003a00daa2a90015003700ed
:102a5c0050178000700060000000e00002003a0097
:102a6c00da82a9000f003700511780000002200005
:102a7c00008060000000e00002003a00ea82a90039
:102a8c00080037005116800000002800008060000c
:102a9c000000e00002003a00eaa2a90001003700a1
:102aac00cbe2a9001e0090000000e00043ff3200c2
:102abc00d0168000680060000000e00041ff32008a
:102acc0050178000680060000000e0000300320036
:102adc00ee009000b10c8800010037009621ef0049
:102aec005000200063000700200f980040002000d9
:102afc0060000700300f9800ae0890001e08900090
:102b0c000088b90000007800700f98007e089000d3
:102b1c006101b8003e0090008000eb00009ab90003
:102b2c0004027800028bb90086027800050242008c
:102b3c000010b800010242008400780010179800c1
:102b4c0021179800ae1090002e00900000804000dd
:102b5c00f00c8800be0890001e0890000088b90098
:102b6c0000007800001798000e1090006101b8006a
:102b7c003e0090008000eb00009ab900040278003f
:102b8c00028bb90086027800050242000010b800e2
:102b9c000102420084007800301798004117980019
:102bac00ce1090002e00900000804000400d880058
:102bbc0005ff37000000fa0000102000203a8800c2
:102bcc00d8a2a800d882a800e882a800e8a2a80091
:102bdc00c9e2a800e862a800d902a800d962a8003e
:102bec00d922a800d942a800d802a800d822a8004f
:102bfc00d842a800d862a800c8a2a800c882a80021
:102c0c00c862a800c842a800c822a800c802a80030
:102c1c00f003200010278800e424ef00e624ef00e6
:102c2c00ea24ef00ec24ef00000e200000198800cd
:102c3c002223ef0000c4200020198800500020003f
:102c4c004019880021e3a800d8e2a900dce2a90021
:102c5c00e802a900ec02a900e822a900ec22a900d4
:102c6c00d1e2a800d182a800c982a8000080fa0095
:102c7c00000006000200fa00000f78009e007800a9
:102c8c00411988002023a8000000000000198000d2
:102c9c00610060000000e000fcff320000188000c2
:082cac000080fa0000000600a0
:020000040000fa
:082cb4000040da000000fe0000
:00000001FF
