:020000040000fa
:04025c001a1700006d
:020000040000fa
:040210001a170000b9
:020000040000fa
:040274001a17000055
:020000040000fa
:040334001a17000094
:020000040000fa
:04035c001a1700006c
:020000040000fa
:040270001a17000059
:020000040000fa
:04022c001a1700009d
:020000040000fa
:04023c001a1700008d
:020000040000fa
:0402bc001a1700000d
:020000040000fa
:0402c0001a17000009
:020000040000fa
:0402c4001a17000005
:020000040000fa
:0402c8001a17000001
:020000040000fa
:040280001a17000049
:020000040000fa
:040284001a17000045
:020000040000fa
:04039c001a1700002c
:020000040000fa
:040228001a170000a1
:020000040000fa
:040278001a17000051
:020000040000fa
:04029c001a1700002d
:020000040000fa
:0402fc001a170000cd
:020000040000fa
:040300001a170000c8
:020000040000fa
:040260001a17000069
:020000040000fa
:040264001a17000065
:020000040000fa
:04027c001a1700004d
:020000040000fa
:040288001a17000041
:020000040000fa
:0402b0001a17000019
:020000040000fa
:0402b4001a17000015
:020000040000fa
:0402b8001a17000011
:020000040000fa
:040238001a17000091
:020000040000fa
:0402e0001a170000e9
:020000040000fa
:0402e4001a170000e5
:020000040000fa
:0402e8001a170000e1
:020000040000fa
:0402f4001a170000d5
:020000040000fa
:0402f8001a170000d1
:020000040000fa
:040304001a170000c4
:020000040000fa
:040308001a170000c0
:020000040000fa
:04030c001a170000bc
:020000040000fa
:040310001a170000b8
:020000040000fa
:040314001a170000b4
:020000040000fa
:040318001a170000b0
:020000040000fa
:04031c001a170000ac
:020000040000fa
:040324001a170000a4
:020000040000fa
:040328001a170000a0
:020000040000fa
:040338001a17000090
:020000040000fa
:04033c001a1700008c
:020000040000fa
:040340001a17000088
:020000040000fa
:040344001a17000084
:020000040000fa
:04034c001a1700007c
:020000040000fa
:040350001a17000078
:020000040000fa
:040354001a17000074
:020000040000fa
:040358001a17000070
:020000040000fa
:040360001a17000068
:020000040000fa
:040364001a17000064
:020000040000fa
:040368001a17000060
:020000040000fa
:040348001a17000080
:020000040000fa
:04026c001a1700005d
:020000040000fa
:0402f0001a170000d9
:020000040000fa
:04037c001a1700004c
:020000040000fa
:040218001a170000b1
:020000040000fa
:040230001a17000099
:020000040000fa
:040240001a17000089
:020000040000fa
:04028c001a1700003d
:020000040000fa
:040290001a17000039
:020000040000fa
:0402cc001a170000fd
:020000040000fa
:0402d0001a170000f9
:020000040000fa
:0402d4001a170000f5
:020000040000fa
:0402d8001a170000f1
:020000040000fa
:040398001a17000030
:020000040000fa
:04020c001a170000bd
:020000040000fa
:0402dc001a170000ed
:020000040000fa
:040320001a170000a8
:020000040000fa
:040208001a170000c1
:020000040000fa
:04021c001a170000ad
:020000040000fa
:040220001a170000a9
:020000040000fa
:040224001a170000a5
:020000040000fa
:040268001a17000061
:020000040000fa
:0402ec001a170000dd
:020000040000fa
:040378001a17000050
:020000040000fa
:04024c001a1700007d
:020000040000fa
:040250001a17000079
:020000040000fa
:0402a8001a17000021
:020000040000fa
:0402ac001a1700001d
:020000040000fa
:040390001a17000038
:020000040000fa
:040394001a17000034
:020000040000fa
:040214001a170000b5
:020000040000fa
:040234001a17000095
:020000040000fa
:040244001a17000085
:020000040000fa
:040248001a17000081
:020000040000fa
:040294001a17000035
:020000040000fa
:040298001a17000031
:020000040000fa
:04032c001a1700009c
:020000040000fa
:040254001a17000075
:020000040000fa
:040258001a17000071
:020000040000fa
:040330001a17000098
:020000040000fa
:0402a0001a17000029
:020000040000fa
:0402a4001a17000025
:020000040000fa
:04036c001a1700005c
:020000040000fa
:040370001a17000058
:020000040000fa
:040374001a17000054
:020000040000fa
:040384001a17000044
:020000040000fa
:040388001a17000040
:020000040000fa
:04038c001a1700003c
:020000040000fa
:040380001a17000048
:020000040000fa
:080000001011040000000000d3
:020000040000fa
:102220000f8020000eff27000e0188000000000034
:10223000000020000000e000020032000001200049
:102240002002880014000700770007000000e0006b
:1022500003003a00000020000100200002003700c7
:102260000000200001002000810f700001003200fa
:1022700014000700000020000000e000020032000f
:102280000000020000000000161202000000000022
:102290000040da000000fe004440a90020002000b9
:1022a0000000e000030032001000200090018800d0
:1022b0004440a800000006008a1f78008b1f7800a9
:1022c00000000600a1028800800478000000eb00f6
:1022d0001f003700e284440054a0b4009905ba00fe
:1022e000e284440054a0b4009906ba00e284440099
:1022f00054a0b4000006eb00476fde00fd07b200fb
:10230000ae018800636ce10003003a00eaff0700b9
:102310000000eb000e003700606ce10008003a009e
:10232000004deb000a05e800020039003420ec0003
:102330000af0a0008b05e900f9ff3e000400370019
:102340006168e100010032000086eb000b0007002d
:1023500019c7ba001905ba000e04e00003003a00dc
:102360000a00e000dbff3a0000000600fe07b200b2
:10237000ae0288008a047800f5ff37000cd0a30075
:10238000e20f4d001c00390089027800354dba007b
:102390000a05e800020039003420ec000af0a00031
:1023a0008b05e9000f003200254dba000a05e80050
:1023b000020039003420ec000af0a0008b05e9008f
:1023c000080032000c00e0000600320015cdba0013
:1023d0000a05e800020039003420ec000af0a000f1
:1023e0008b05e9008984e80054a0b4000b00e000ec
:1023f000e2ff3a00000006009902ba00055d78008d
:102400008b05e900f7ff3200c82ade00055d780081
:102410008b05e900f3ff32000c00e000f1ff320011
:0c24200019ddba00eeff370000000500d7
:020000040000fa
:1020000010110400000000001a1704000000000076
:102010001a170400000000001a1704000000000056
:102020001a170400000000001a1704000000000046
:102030001a170400000000001a1704000000000036
:102040001a170400000000001a1704000000000026
:102050001a170400000000001a1704000000000016
:102060001a170400000000001a1704000000000006
:102070001a170400000000001a17040000000000f6
:102080001a170400000000001a17040000000000e6
:102090001a170400000000001a17040000000000d6
:1020a0001a170400000000001a17040000000000c6
:1020b0001a170400000000001a17040000000000b6
:1020c0001a170400000000001a17040000000000a6
:1020d0001a170400000000001a1704000000000096
:1020e0001a170400000000001a1704000000000086
:1020f0001a170400000000001a1704000000000076
:102100001a170400000000001a1704000000000065
:102110001a170400000000001a1704000000000055
:102120001a170400000000001a1704000000000045
:102130001a170400000000001a1704000000000035
:102140001a170400000000001a1704000000000025
:102150001a170400000000001a1704000000000015
:102160001a170400000000001a1704000000000005
:102170001a170400000000001a17040000000000f5
:102180001a170400000000001a17040000000000e5
:102190001a170400000000001a17040000000000d5
:1021a0001a170400000000001a17040000000000c5
:1021b0001a170400000000001a17040000000000b5
:1021c0001a170400000000001a17040000000000a5
:1021d0001a170400000000001a1704000000000095
:1021e0001a170400000000001a1704000000000085
:1021f0001a170400000000001a1704000000000075
:102200001a170400000000001a1704000000000064
:102210001a170400000000001a1704000000000054
:020000040000fa
:1000080004100000081000000c1000001010000080
:10001800141000000c1100000c1100000c1100005d
:10002800181000001c100000201000002410000010
:100038000c110000281000002c10000030100000e7
:1000480034100000381000003c1000004010000080
:1000580044100000481000000c1100000c110000b2
:100068004c10000050100000541000005810000000
:100078005c1000000c11000060100000641000000b
:100088000c110000681000006c10000070100000d7
:1000980074100000781000007c1000008010000030
:1000a80084100000881000000c1100000c110000e2
:1000b8000c1100008c10000090100000941000003b
:1000c800981000009c100000a0100000a410000070
:1000d800a8100000ac1000000c1100000c1100006a
:1000e8000c110000b0100000b41000000c1100004a
:1000f8000c110000b8100000bc1000000c1100002a
:100108000c1100000c1100000c1100000c11000073
:100118000c1100000c110000c01000000c110000b0
:100128000c110000c4100000c8100000cc10000022
:100138000c1100000c1100000c1100000c11000043
:10014800d01000000c1100000c1100000c11000070
:100158000c110000d41000000c1100000c1100005c
:100168000c110000d8100000dc100000e0100000a6
:10017800e4100000e8100000ec100000f01000008f
:10018800f4100000f8100000fc100000001100003e
:1001980004110000081100000c1100000c110000ef
:1001a8000c1100000c1100000c1100000c110000d3
:1001b8000c1100000c1100000c1100000c110000c3
:1001c8000c1100000c1100000c1100000c110000b3
:1001d8000c1100000c1100000c1100000c110000a3
:1001e8000c1100000c1100000c1100000c11000093
:0801f8000c1100000c110000c5
:020000040000fa
:10242c002800fa00430207000084230040079800ac
:10243c0000b0240050079800006c20006007980042
:10244c000068200070079800d8a2a90000000000c6
:10245c00d882a90000000000e882a900000000005a
:10246c00e8a2a90000000000c9e2a90000000000d9
:10247c00daa2a90000000000da82a9000000000026
:10248c00ea82a90000000000eaa2a90000000000f6
:10249c00cbe2a900000000001000200010079800fb
:1024ac0000032000800888009086210060088800c6
:1024bc000621ef0084e0a90011e1a800e862a80061
:1024cc00ea62a900d902a90000000000db02a90001
:1024dc00113a8000f00b20000081600060042000a5
:1024ec007105200023742000804978008149780010
:1024fc00824978006e0090000080e80021c1b30092
:10250c0001487800103a8000000178000260a000b9
:10251c00600420007105200023742000804978009d
:10252c00814978008249780060c02100800c8800c5
:10253c00f0012000900c8800f0632000a00c8800b3
:10254c00a00c80006500b90000007800c200de001d
:10255c00b04721000008b8000100d100000f98001e
:10256c009621ef009821ef000000eb003007980057
:10257c00d962a800db62a900d922a800db22a9003d
:10258c00d942a90000000000113a8000f00b200095
:10259c00008160006004200071052000237420007d
:1025ac008049780081497800824978006e0090005b
:1025bc006300400031c1b30001487800103a80003c
:1025cc00000178000260a00060042000710520006a
:1025dc002374200080497800814978008249780072
:1025ec00f0c02100d00c8800b0082000e00c88005e
:1025fc00008f2500100f980000002800200f980075
:10260c00008f2500000f78009e0078005e0090007f
:10261c000088b900800078004e00900000804000d7
:10262c00f00c880010002000000d8800a221ef00a3
:10263c00d802a90000000000da02a900113a8000bb
:10264c00f00b200000816000600420007105200068
:10265c0023742000804978008149780082497800f1
:10266c006e0090006b00400041c1b300014878003f
:10267c00103a8000000178000260a0006004200085
:10268c00710520002374200080497800814978006e
:10269c008249780060c02100200d8800f0012000e4
:1026ac00300d8800f0632000400d8800410d800043
:1026bc00b00420000088b90000007800c200de00e1
:1026cc00b04721000008b8000100d100300f98007d
:1026dc00aa21ef00ac21ef00000320009008880035
:1026ec0000772100700888000a21ef008500a900fe
:1026fc0013e1a800d822a90000000000f03f200040
:10270c00400f9800800e2800500f9800de089000b3
:10271c004e08900000017800110009008280d8005a
:10272c00600f9800008f2500700f9800113a800000
:10273c00f00b200000816000600420007105200077
:10274c002374200080497800814978008249780000
:10275c006e0090007800400051c1b3000148780031
:10276c00103a8000000178000260a0006004200094
:10277c00710520002374200080497800814978007d
:10278c0082497800f0c02100700d8800b00820004c
:10279c00800d8800fe0890005e0090000088b90053
:1027ac00800078004e00900000804000900d880062
:1027bc0010002000a00d8800b621ef0000012000c1
:1027cc0020088800f0c32900100888000021ef00c1
:1027dc0005e1a800d842a800d862a800da42a900f6
:1027ec00da62a9000000eb00200798000300370014
:1027fc00000000000100370000000000d01680002f
:10280c00640060000000e00007003200d016800079
:10281c00680060000000e00003003200100020009f
:10282c00200798001b003700d01680006400600061
:10283c000000e00017003a00d0168000680060002d
:10284c000000e00013003a000000eb0020079800a5
:10285c009e0890005e0090000088b900800078000f
:10286c004e00900000804000f00c8800daa2a90015
:10287c0000000000da82a90000000000ea82a90032
:10288c0000000000eaa2a90000000000cbe2a900b1
:10289c00000000002e0090000000e0000301320058
:1028ac00d0168000680060000000e000ff003200dd
:1028bc0050178000680060000000e0003400320017
:1028cc005116800000002800008060000000e0002d
:1028dc00050032000e0890006c00b9000000780072
:1028ec00b00c8800820037005117800000022000d5
:1028fc00008060000000e000050032000e0890002f
:10290c006b00b90000007800b00c8800780037002c
:10291c0050178000700060000000e00005003200dd
:10292c000e0890006a00b90000007800b00c880016
:10293c006f003700d0168000700060000000e000cf
:10294c00050032000e0890006900b9000000780004
:10295c00b00c880066003700d11680000002200001
:10296c00008060000000e000040032000e089000bf
:10297c004300dd00b00c88005d0037000e089000ad
:10298c006700b90000007800b00c880058003700d0
:10299c009621ef00dce2a800210480000008200052
:1029ac00008060000000e0005100320084e0a900cb
:1029bc001e0090000000e00025003200511680003f
:1029cc0000002800008060000000e00004003200dd
:1029dc000000eb0010079800ec02a900440037003f
:1029ec005117800000022000008060000000e00011
:1029fc0002003200cbe2a8003d00370050178000e7
:102a0c00700060000000e00002003200eaa2a800a2
:102a1c0037003700d0168000700060000000e00026
:102a2c0002003200ea82a80031003700d116800083
:102a3c0000022000008060000000e0000200320074
:102a4c00da82a8002a003700daa2a8002800370092
:102a5c001e0090000000e00025003a00d116800016
:102a6c0000022000008060000000e00005003a0039
:102a7c001000200010079800ec02a800dce2a9006e
:102a8c001b003700d0168000700060000000e000d2
:102a9c0002003a00daa2a900150037005017800096
:102aac00700060000000e00002003a00da82a90029
:102abc000f003700511780000002200000806000da
:102acc000000e00002003a00ea82a900080037008a
:102adc005116800000002800008060000000e0001b
:102aec0002003a00eaa2a90001003700cbe2a900db
:102afc00d116800000802000008060000000e00003
:102b0c00080032009e0078005e0090000088b9003a
:102b1c00800078004e00900000804000f00c88008f
:102b2c00590037001e0890009e007800808f5000de
:102b3c00130036002104800000102000008060008b
:102b4c000000e0000e0032003e0090000000e000ab
:102b5c000b003a009e0078006a8f50009e007800af
:102b6c005e0090000088b900800078004e00900054
:102b7c0000804000f00c88008500a900420037005e
:102b8c002e0890009e007800808f500013003100ba
:102b9c002104800000102000008060000000e00094
:102bac000e0032003e0090000000e0000b003200ee
:102bbc001e0178006a0f41009e0078005e009000b4
:102bcc000088b900800078004e0090000080400022
:102bdc00f00c88008500a9002b0037001e0890001f
:102bec009e007800808f500012003e00210480006f
:102bfc0000102000008060000000e0000d0032009a
:102c0c009e0078006a8f40009e0078005e00900065
:102c1c000088b900800078004e00900000804000d1
:102c2c00f00c880010002000300798008500a900e7
:102c3c00150037002e0890009e007800808f500001
:102c4c001100390021048000001020000080600079
:102c5c000000e0000c0032001e0178006a0f5100e9
:102c6c009e0078005e0090000088b900800078001b
:102c7c004e00900000804000f00c88000000eb003b
:102c8c00300798008500a900d11680000020200094
:102c9c00008060000000e00003003200be089000dd
:102cac00510d880001003700aa21ef002e00900082
:102cbc000000e000cefe3200d01680006400600000
:102ccc000000e000ccfe320050002000490007005c
:102cdc00001798008e1090006e0890000088b900c4
:102cec0000007800101798001e1090006101b800c9
:102cfc005e0090008000eb00009ab900040278009e
:102d0c00028bb90086027800050242000010b80060
:102d1c0001024200840078002017980031179800b7
:102d2c00be1090004e00900000804000900d880076
:102d3c00b2fe37000000fa0000102000203a880094
:102d4c00d8a2a800d882a800e882a800e8a2a8000f
:102d5c00c9e2a800e862a800d902a800d962a800bc
:102d6c00d922a800d942a800d802a800d822a800cd
:102d7c00d842a800d862a800c8a2a800c882a8009f
:102d8c00c862a800c842a800c822a800c802a800af
:102d9c00f003200010278800e424ef00e624ef0065
:102dac00ea24ef00ec24ef00000e2000001988004c
:102dbc002223ef0000c420002019880050002000be
:102dcc004019880021e3a800d8e2a900dce2a900a0
:102ddc00e802a900ec02a900e822a900ec22a90053
:102dec00d1e2a800d182a800c982a8000080fa0014
:102dfc00000006000200fa00000f78009e00780028
:102e0c00411988002023a800000000000019800050
:102e1c00610060000000e000fcff32000018800040
:082e2c000080fa00000006001e
:020000040000fa
:082e34000040da000000fe007e
:00000001FF
