:020000040000fa
:04025c001617000071
:020000040000fa
:0402100016170000bd
:020000040000fa
:040274001617000059
:020000040000fa
:040334001617000098
:020000040000fa
:04035c001617000070
:020000040000fa
:04027000161700005d
:020000040000fa
:04022c0016170000a1
:020000040000fa
:04023c001617000091
:020000040000fa
:0402bc001617000011
:020000040000fa
:0402c000161700000d
:020000040000fa
:0402c4001617000009
:020000040000fa
:0402c8001617000005
:020000040000fa
:04028000161700004d
:020000040000fa
:040284001617000049
:020000040000fa
:04039c001617000030
:020000040000fa
:0402280016170000a5
:020000040000fa
:040278001617000055
:020000040000fa
:04029c001617000031
:020000040000fa
:0402fc0016170000d1
:020000040000fa
:0403000016170000cc
:020000040000fa
:04026000161700006d
:020000040000fa
:040264001617000069
:020000040000fa
:04027c001617000051
:020000040000fa
:040288001617000045
:020000040000fa
:0402b000161700001d
:020000040000fa
:0402b4001617000019
:020000040000fa
:0402b8001617000015
:020000040000fa
:040238001617000095
:020000040000fa
:0402e00016170000ed
:020000040000fa
:0402e40016170000e9
:020000040000fa
:0402e80016170000e5
:020000040000fa
:0402f40016170000d9
:020000040000fa
:0402f80016170000d5
:020000040000fa
:0403040016170000c8
:020000040000fa
:0403080016170000c4
:020000040000fa
:04030c0016170000c0
:020000040000fa
:0403100016170000bc
:020000040000fa
:0403140016170000b8
:020000040000fa
:0403180016170000b4
:020000040000fa
:04031c0016170000b0
:020000040000fa
:0403240016170000a8
:020000040000fa
:0403280016170000a4
:020000040000fa
:040338001617000094
:020000040000fa
:04033c001617000090
:020000040000fa
:04034000161700008c
:020000040000fa
:040344001617000088
:020000040000fa
:04034c001617000080
:020000040000fa
:04035000161700007c
:020000040000fa
:040354001617000078
:020000040000fa
:040358001617000074
:020000040000fa
:04036000161700006c
:020000040000fa
:040364001617000068
:020000040000fa
:040368001617000064
:020000040000fa
:040348001617000084
:020000040000fa
:04026c001617000061
:020000040000fa
:0402f00016170000dd
:020000040000fa
:04037c001617000050
:020000040000fa
:0402180016170000b5
:020000040000fa
:04023000161700009d
:020000040000fa
:04024000161700008d
:020000040000fa
:04028c001617000041
:020000040000fa
:04029000161700003d
:020000040000fa
:0402cc001617000001
:020000040000fa
:0402d00016170000fd
:020000040000fa
:0402d40016170000f9
:020000040000fa
:0402d80016170000f5
:020000040000fa
:040398001617000034
:020000040000fa
:04020c0016170000c1
:020000040000fa
:0402dc0016170000f1
:020000040000fa
:0403200016170000ac
:020000040000fa
:0402080016170000c5
:020000040000fa
:04021c0016170000b1
:020000040000fa
:0402200016170000ad
:020000040000fa
:0402240016170000a9
:020000040000fa
:040268001617000065
:020000040000fa
:0402ec0016170000e1
:020000040000fa
:040378001617000054
:020000040000fa
:04024c001617000081
:020000040000fa
:04025000161700007d
:020000040000fa
:0402a8001617000025
:020000040000fa
:0402ac001617000021
:020000040000fa
:04039000161700003c
:020000040000fa
:040394001617000038
:020000040000fa
:0402140016170000b9
:020000040000fa
:040234001617000099
:020000040000fa
:040244001617000089
:020000040000fa
:040248001617000085
:020000040000fa
:040294001617000039
:020000040000fa
:040298001617000035
:020000040000fa
:04032c0016170000a0
:020000040000fa
:040254001617000079
:020000040000fa
:040258001617000075
:020000040000fa
:04033000161700009c
:020000040000fa
:0402a000161700002d
:020000040000fa
:0402a4001617000029
:020000040000fa
:04036c001617000060
:020000040000fa
:04037000161700005c
:020000040000fa
:040374001617000058
:020000040000fa
:040384001617000048
:020000040000fa
:040388001617000044
:020000040000fa
:04038c001617000040
:020000040000fa
:04038000161700004c
:020000040000fa
:080000001011040000000000d3
:020000040000fa
:102220000f8020000eff27000e0188000000000034
:10223000000020000000e000020032000001200049
:102240002002880014000700770007000000e0006b
:1022500003003a00000020000100200002003700c7
:102260000000200001002000810f700001003200fa
:1022700014000700000020000000e000020032000f
:102280000000020000000000161202000000000022
:102290000040da000000fe004440a90020002000b9
:1022a0000000e000030032001000200090018800d0
:1022b0004440a800000006008a1f78008b1f7800a9
:1022c00000000600a1028800800478000000eb00f6
:1022d0001f003700e284440054a0b4009905ba00fe
:1022e000e284440054a0b4009906ba00e284440099
:1022f00054a0b4000006eb00476fde00fd07b200fb
:10230000ae018800636ce10003003a00eaff0700b9
:102310000000eb000e003700606ce10008003a009e
:10232000004deb000a05e800020039003420ec0003
:102330000af0a0008b05e900f9ff3e000400370019
:102340006168e100010032000086eb000b0007002d
:1023500019c7ba001905ba000e04e00003003a00dc
:102360000a00e000dbff3a0000000600fe07b200b2
:10237000ae0288008a047800f5ff37000cd0a30075
:10238000e20f4d001c00390089027800354dba007b
:102390000a05e800020039003420ec000af0a00031
:1023a0008b05e9000f003200254dba000a05e80050
:1023b000020039003420ec000af0a0008b05e9008f
:1023c000080032000c00e0000600320015cdba0013
:1023d0000a05e800020039003420ec000af0a000f1
:1023e0008b05e9008984e80054a0b4000b00e000ec
:1023f000e2ff3a00000006009902ba00055d78008d
:102400008b05e900f7ff3200c82ade00055d780081
:102410008b05e900f3ff32000c00e000f1ff320011
:0c24200019ddba00eeff370000000500d7
:020000040000fa
:10200000101104000000000016170400000000007a
:10201000161704000000000016170400000000005e
:10202000161704000000000016170400000000004e
:10203000161704000000000016170400000000003e
:10204000161704000000000016170400000000002e
:10205000161704000000000016170400000000001e
:10206000161704000000000016170400000000000e
:1020700016170400000000001617040000000000fe
:1020800016170400000000001617040000000000ee
:1020900016170400000000001617040000000000de
:1020a00016170400000000001617040000000000ce
:1020b00016170400000000001617040000000000be
:1020c00016170400000000001617040000000000ae
:1020d000161704000000000016170400000000009e
:1020e000161704000000000016170400000000008e
:1020f000161704000000000016170400000000007e
:10210000161704000000000016170400000000006d
:10211000161704000000000016170400000000005d
:10212000161704000000000016170400000000004d
:10213000161704000000000016170400000000003d
:10214000161704000000000016170400000000002d
:10215000161704000000000016170400000000001d
:10216000161704000000000016170400000000000d
:1021700016170400000000001617040000000000fd
:1021800016170400000000001617040000000000ed
:1021900016170400000000001617040000000000dd
:1021a00016170400000000001617040000000000cd
:1021b00016170400000000001617040000000000bd
:1021c00016170400000000001617040000000000ad
:1021d000161704000000000016170400000000009d
:1021e000161704000000000016170400000000008d
:1021f000161704000000000016170400000000007d
:10220000161704000000000016170400000000006c
:10221000161704000000000016170400000000005c
:020000040000fa
:1000080004100000081000000c1000001010000080
:10001800141000000c1100000c1100000c1100005d
:10002800181000001c100000201000002410000010
:100038000c110000281000002c10000030100000e7
:1000480034100000381000003c1000004010000080
:1000580044100000481000000c1100000c110000b2
:100068004c10000050100000541000005810000000
:100078005c1000000c11000060100000641000000b
:100088000c110000681000006c10000070100000d7
:1000980074100000781000007c1000008010000030
:1000a80084100000881000000c1100000c110000e2
:1000b8000c1100008c10000090100000941000003b
:1000c800981000009c100000a0100000a410000070
:1000d800a8100000ac1000000c1100000c1100006a
:1000e8000c110000b0100000b41000000c1100004a
:1000f8000c110000b8100000bc1000000c1100002a
:100108000c1100000c1100000c1100000c11000073
:100118000c1100000c110000c01000000c110000b0
:100128000c110000c4100000c8100000cc10000022
:100138000c1100000c1100000c1100000c11000043
:10014800d01000000c1100000c1100000c11000070
:100158000c110000d41000000c1100000c1100005c
:100168000c110000d8100000dc100000e0100000a6
:10017800e4100000e8100000ec100000f01000008f
:10018800f4100000f8100000fc100000001100003e
:1001980004110000081100000c1100000c110000ef
:1001a8000c1100000c1100000c1100000c110000d3
:1001b8000c1100000c1100000c1100000c110000c3
:1001c8000c1100000c1100000c1100000c110000b3
:1001d8000c1100000c1100000c1100000c110000a3
:1001e8000c1100000c1100000c1100000c11000093
:0801f8000c1100000c110000c5
:020000040000fa
:10242c001c00fa00410207000084230050079800aa
:10243c0000b0240060079800006c20007007980022
:10244c0000682000000f9800d8a2a900000000002e
:10245c00d882a90000000000e882a900000000005a
:10246c00e8a2a90000000000c9e2a90000000000d9
:10247c00daa2a90000000000da82a9000000000026
:10248c00ea82a90000000000eaa2a90000000000f6
:10249c00cbe2a90000000000e862a800ea62a900f3
:1024ac00d902a90000000000db02a900113a80004b
:1024bc00f00b2000008160006004200071052000fa
:1024cc002374200080497800814978008249780083
:1024dc007e0090000080e80021c1b3000148780024
:1024ec00103a8000000178000260a0006004200017
:1024fc007105200023742000804978008149780000
:10250c008249780060c02100800c8800f001200016
:10251c00900c8800f0632000a00c8800a00c8000b8
:10252c006a00b90000007800c200de00b04721004c
:10253c000008b8000100d100100f98009621ef00a0
:10254c009821ef00100020001007980000032000d5
:10255c002008880090862100100888000021ef00d8
:10256c008460a90005e1a8000000eb00400798007a
:10257c001000200030079800d962a800db62a90087
:10258c00d922a800db22a900d942a9000000000032
:10259c00113a8000f00b20000081600060042000e4
:1025ac00710520002374200080497800814978004f
:1025bc00824978007e0090006300400031c1b30076
:1025cc0001487800103a8000000178000260a000f9
:1025dc0060042000710520002374200080497800dd
:1025ec008149780082497800f0c02100d00c880025
:1025fc00b0082000e00c8800008f2500200f980008
:10260c0000002800300f9800008f2500000f780084
:10261c009e0078006e0090000088b9008000780061
:10262c005e00900000804000f00c8800100020003c
:10263c00000d8800a221ef00d802a90000000000c4
:10264c00da02a900113a8000f00b20000081600032
:10265c00600420007105200023742000804978005c
:10266c0081497800824978007e0090006b00400020
:10267c0041c1b30001487800103a80000001780095
:10268c000260a0006004200071052000237420006b
:10269c0080497800814978008249780060c0210027
:1026ac00200d8800f0012000300d8800f063200020
:1026bc00400d8800410d8000600420000088b900a6
:1026cc0000007800c200de00b04721000008b8000e
:1026dc000100d100400f9800aa21ef00ac21ef00bf
:1026ec0000032000900888008038210070088800c2
:1026fc000a21ef008500a90013e1a80000032000c7
:10270c00800888000080eb00600888000621ef003c
:10271c0084e0a80011e1a800d822a9000000000064
:10272c00008f2500500f9800113a8000f00b20000c
:10273c0000816000600420007105200023742000db
:10274c008049780081497800824978007e009000a9
:10275c007800400051c1b30001487800103a800065
:10276c00000178000260a0006004200071052000c8
:10277c0023742000804978008149780082497800d0
:10278c00f0c02100700d8800b0082000800d88007a
:10279c00de0890006e0090000088b9008000780080
:1027ac005e00900000804000900d8800100020001a
:1027bc00a00d8800b621ef0000012000f008880071
:1027cc00f0c32900d00888001421ef001fe1a800f5
:1027dc00d842a800d862a800da42a900da62a9009f
:1027ec000000eb00200798000100370000000000fb
:1027fc00d0168000640060000000e000070032008a
:10280c00d0168000680060000000e0000300320079
:10281c0010002000200798001b003700d016800005
:10282c00640060000000e00017003a00d016800041
:10283c00680060000000e00013003a000000eb00ac
:10284c0020079800ae0890006e0090000088b90038
:10285c00800078005e00900000804000f00c880042
:10286c00daa2a90000000000da82a9000000000032
:10287c00ea82a90000000000eaa2a9000000000002
:10288c00cbe2a900000000002e0090000000e00048
:10289c0021013200d0168000680060000000e000ca
:1028ac001d01320050178000680060000000e0003d
:1028bc0034003200511680000000280000806000b7
:1028cc000000e000050032001e0890006a00b9000c
:1028dc0000007800b00c8800810037005117800090
:1028ec0000022000008060000000e00005003200c3
:1028fc001e0890006900b90000007800b00c880038
:10290c007700370050178000700060000000e00076
:10291c00040032001e0890004300dd00b00c88005b
:10292c006f003700d0168000700060000000e000df
:10293c00050032001e0890006700b9000000780006
:10294c00b00c880066003700d11680000002200011
:10295c00008060000000e000050032001e089000be
:10296c006600b90000007800b00c88005c003700ed
:10297c001e0890006500b90000007800b00c8800bb
:10298c00570037009621ef00dce2a80020048000fd
:10299c00680060000000e000510032008460a90073
:1029ac001e0090000000e00025003200511680004f
:1029bc0000002800008060000000e00004003200ed
:1029cc000000eb0010079800ec02a900440037004f
:1029dc005117800000022000008060000000e00021
:1029ec0002003200cbe2a8003d00370050178000f7
:1029fc00700060000000e00002003200eaa2a800b3
:102a0c0037003700d0168000700060000000e00036
:102a1c0002003200ea82a80031003700d116800093
:102a2c0000022000008060000000e0000200320084
:102a3c00da82a8002a003700daa2a80028003700a2
:102a4c001e0090000000e00025003a00d116800026
:102a5c0000022000008060000000e00005003a0049
:102a6c001000200010079800ec02a800dce2a9007e
:102a7c001b003700d0168000700060000000e000e2
:102a8c0002003a00daa2a9001500370050178000a6
:102a9c00700060000000e00002003a00da82a90039
:102aac000f003700511780000002200000806000ea
:102abc000000e00002003a00ea82a900080037009a
:102acc005116800000002800008060000000e0002b
:102adc0002003a00eaa2a90001003700cbe2a900eb
:102aec00d116800000802000008060000000e00013
:102afc000c0032003e0090000000e00009003200a3
:102b0c002104800000082000008060000000e0002c
:102b1c000400320084e0a9000000eb0030079800ac
:102b2c006d0037002e0890009e007800808f5000ba
:102b3c001800360021048000001020000080600086
:102b4c000000e00013003200210480000008200087
:102b5c00008060000000e0000e0032004e0090008b
:102b6c000000e0000b003a009e0078006a8f5000d5
:102b7c009e0078006e0090000088b90080007800fc
:102b8c005e00900000804000f00c88008500a900d9
:102b9c00510037003e0890009e007800808f500056
:102bac00180031002104800000102000008060001b
:102bbc000000e00013003200210480000008200017
:102bcc00008060000000e0000e0032004e0090001b
:102bdc000000e0000b0032009e0078006a8f40007d
:102bec009e0078006e0090000088b900800078008c
:102bfc005e00900000804000f00c88008500a90069
:102c0c00350037002e0890009e007800808f500011
:102c1c0017003e002104800000102000008060009e
:102c2c000000e000120032002104800000082000a7
:102c3c00008060000000e0000d0032009e00780073
:102c4c006a8f40009e0078006e0090000088b900ea
:102c5c00800078005e00900000804000f00c88003e
:102c6c0010002000400798008500a9001a003700ca
:102c7c003e0890009e007800808f500016003900ae
:102c8c002104800000102000008060000000e000a3
:102c9c001100320021048000000820000080600038
:102cac000000e0000c0032009e0078006a8f50009b
:102cbc009e0078006e0090000088b90080007800bb
:102ccc005e00900000804000f00c88000000eb00db
:102cdc00400798008500a900d116800000802000d4
:102cec00008060000000e00002003a0010002000ac
:102cfc0030079800d1168000002020000080600072
:102d0c000000e00003003200ce089000510d880056
:102d1c0001003700aa21ef002e0090000000e00017
:102d2c00b2fe3200d0168000b1fe37000000fa006f
:102d3c0000102000203a8800d8a2a800d882a80051
:102d4c00e882a800e8a2a800c9e2a800e862a800ee
:102d5c00d902a800d962a800d922a800d942a8009b
:102d6c00d802a800d822a800d842a800d862a8008f
:102d7c00c8a2a800c882a800c862a800c842a800bf
:102d8c00c822a800c802a800f00320001027880061
:102d9c00e424ef00e624ef00ea24ef00ec24ef003b
:102dac00000e2000001988002223ef0000c4200030
:102dbc0020198800500020004019880021e3a80049
:102dcc00d8e2a900dce2a900e802a900ec02a90003
:102ddc00e822a900ec22a900d1e2a800d182a80027
:102dec00c982a8000080fa00000006000200fa0068
:102dfc00000f78009e007800411988002023a8005d
:102e0c000000000000198000610060000000e0007c
:102e1c00fcff3200001880000080fa000000060061
:020000040000fa
:082e2c000040da000000fe0086
:00000001FF
